:100000000C945D000C9485000C9485000C94850084
:100010000C9485000C9485000C9485000C9485004C
:100020000C9485000C9485000C9485000C9485003C
:100030000C9485000C9485000C9485000C9485002C
:100040000C94F4020C9485000C94C2020C949C0253
:100050000C9485000C9485000C9485000C9485000C
:100060000C9485000C9485000000000024002700FB
:100070002A0000000000250028002B0004040404CE
:100080000404040402020202020203030303030342
:10009000010204081020408001020408102001021F
:1000A00004081020000000080002010000030407FB
:1000B0000000000000000000E80411241FBECFEF84
:1000C000D8E0DEBFCDBF11E0A0E0B1E0E2E0FBE0B0
:1000D00002C005900D92AE32B107D9F721E0AEE231
:1000E000B1E001C01D92AE3DB207E1F710E0CDE5F1
:1000F000D0E004C02197FE010E947405CC35D107E1
:10010000C9F70E943E030C947F050C940000CF9227
:10011000DF92EF92FF920F931F93CF93DF936C01C7
:100120007A018B01C0E0D0E0CE15DF0581F0D80167
:100130006D918D01D601ED91FC910190F081E02D42
:10014000C6010995892B11F02196EECF7E01C701DA
:10015000DF91CF911F910F91FF90EF90DF90CF90A3
:100160000895089580E090E00895FC01538D448D3A
:10017000252F30E0842F90E0821B930B541710F052
:10018000CF96089501970895FC01918D828D98175F
:1001900061F0828DDF01A80FB11D5D968C91928D6B
:1001A0009F5F9F73928F90E008958FEF9FEF089568
:1001B000FC01918D828D981731F0828DE80FF11D31
:1001C000858D90E008958FEF9FEF0895FC01918D4C
:1001D000228D892F90E0805C9F4F821B91098F7345
:1001E0009927089581E491E00E94E60021E0892B9F
:1001F00009F420E0822F0895FC01848DDF01A80F0F
:10020000B11DA35ABF4F2C91848D90E001968F733E
:100210009927848FA689B7892C93A089B1898C915D
:10022000837080648C93938D848D981306C00288AC
:10023000F389E02D80818F7D80830895EF92FF9276
:100240000F931F93CF93DF93EC0181E0888F9B8DF9
:100250008C8D981305C0E889F989808185FD26C0B9
:10026000F62E0B8D10E00F5F1F4F0F731127E02E3E
:100270008C8DE8120CC00FB607FCFACFE889F9891B
:10028000808185FFF5CFCE010E94FC00F1CF8B8DE0
:10029000FE01E80FF11DE35AFF4FF0829FB7F8947B
:1002A0000B8FEA89FB89808180620AC09FB7F8942E
:1002B000EE89FF896083E889F98980818370806491
:1002C00080839FBF81E090E0DF91CF911F910F91DC
:1002D000FF90EF900895CF93DF93EC01888D8823F2
:1002E000C9F0EA89FB89808185FD05C0A889B989A3
:1002F0008C9186FD0FC00FB607FCF5CF808185FF7E
:10030000F2CFA889B9898C9185FFEDCFCE010E94EB
:10031000FC00E7CFDF91CF91089580E090E0892B3A
:1003200029F00E94F20081110C940000089590E0E1
:10033000FC01EC55FF4F2491FC01E057FF4F349135
:10034000FC01E458FF4FE491EE2309F43CC0222362
:1003500039F1233091F038F42130A9F0223001F541
:1003600084B58F7D12C0273091F02830A1F0243061
:10037000B9F4809180008F7D03C0809180008F77D9
:10038000809380000DC084B58F7784BD09C08091B3
:10039000B0008F7703C08091B0008F7D8093B00054
:1003A000F0E0EE0FFF1FEE58FF4FA591B4919FB7FD
:1003B000F894611104C08C913095382302C0EC91FF
:1003C0003E2B3C939FBF0895CF93DF9390E0FC01B9
:1003D000E057FF4F2491FC01E458FF4F849188239C
:1003E00061F190E0880F991FFC01E859FF4FC5911A
:1003F000D491FC01EE58FF4FA591B491611109C051
:100400009FB7F8948881209582238883EC912E23CE
:100410000BC0623061F49FB7F8948881322F309519
:1004200083238883EC912E2B2C939FBF06C08FB71C
:10043000F894E8812E2B28838FBFDF91CF91089508
:100440003FB7F8948091330190913401A091350128
:10045000B091360126B5A89B05C02F3F19F0019633
:10046000A11DB11D3FBFBA2FA92F982F8827820F3A
:10047000911DA11DB11DBC01CD0142E0660F771F8A
:10048000881F991F4A95D1F70895009769F0FC01DC
:1004900001900020E9F73197AF01481B590BBC01CF
:1004A00081E491E00C94870080E090E00895CF9281
:1004B000DF92EF92FF920F931F93CF93DF93CDB70D
:1004C000DEB7A1970FB6F894DEBF0FBECDBF9B017C
:1004D000AC0119A28E010F5D1F4F8AE0C82ED12CEE
:1004E000E12CF12CCA01B901A70196010E94340543
:1004F000605DF80162938F012115310541055105B9
:1005000089F7CF010E9445028C0184E191E00E94AD
:100510004502800F911FA1960FB6F894DEBF0FBE63
:10052000CDBFDF91CF911F910F91FF90EF90DF90A2
:10053000CF9008950E947A051F920F920FB60F92E6
:1005400011242F933F934F935F936F937F938F93D8
:100550009F93AF93BF93EF93FF9381E491E00E9449
:10056000FC00FF91EF91BF91AF919F918F917F918F
:100570006F915F914F913F912F910F900FBE0F9010
:100580001F9018951F920F920FB60F9211242F9360
:100590008F939F93EF93FF93E0915101F09152015C
:1005A0008081E0915701F091580182FD12C0908145
:1005B00080915A018F5F8F7320915B01821751F0F8
:1005C000E0915A01F0E0EF5BFE4F958F80935A0166
:1005D00001C08081FF91EF919F918F912F910F909A
:1005E0000FBE0F901F9018951F920F920FB60F928B
:1005F00011242F933F938F939F93AF93BF93809139
:100600002F0190913001A0913101B09132013091D0
:100610002E0123E0230F2D3720F40196A11DB11DDB
:1006200005C026E8230F0296A11DB11D20932E01BF
:1006300080932F0190933001A0933101B093320148
:100640008091330190913401A0913501B091360130
:100650000196A11DB11D8093330190933401A093A5
:100660003501B0933601BF91AF919F918F913F912A
:100670002F910F900FBE0F901F901895789484B50E
:10068000826084BD84B5816084BD85B5826085BD8E
:1006900085B5816085BD80916E00816080936E001C
:1006A000109281008091810082608093810080910E
:1006B00081008160809381008091800081608093BF
:1006C00080008091B10084608093B1008091B0007F
:1006D00081608093B00080917A00846080937A007A
:1006E00080917A00826080937A0080917A008160A4
:1006F00080937A0080917A00806880937A001092CB
:10070000C100E0915101F091520182E08083E091BB
:100710004D01F0914E011082E0914F01F091500196
:10072000108210925901E0915501F091560186E036
:100730008083E0915301F091540180818061808336
:10074000E0915301F0915401808188608083E091B1
:100750005301F0915401808180688083E0915301BE
:10076000F091540180818F7D808361E083E00E945D
:10077000E40161E085E00E94E40161E086E00E941E
:10078000E40161E089E00E94E40161E08AE00E9406
:10079000E40161E08BE00E94E40160E08EE00E94F1
:1007A000E4010E9420026093390170933A01809322
:1007B0003B0190933C0110E4CC24CA9483E0D82EF2
:1007C000E12CF12CC1E0D0E00E94200260933D01B9
:1007D00070933E0180933F019093400180903901D6
:1007E00090903A01A0903B01B0903C0120913701DC
:1007F000309138012901330F66087708AB01BC013D
:10080000481959096A097B09441555056605770594
:1008100008F4DBC0D501C401840D951DA61DB71DCC
:100820008093390190933A01A0933B01B0933C012E
:10083000809100019091010183309105C9F1A4F4E8
:100840008130910539F1029709F06FC061E083E0D2
:100850000E94970160E085E00E94970160E086E0D9
:100860000E94970161E051C08530910509F440C0B4
:100870004CF1069709F059C060E083E00E949701AF
:1008800061E085E00E94970160E086E00E949701A8
:1008900060E040C060E083E00E94970160E085E096
:1008A0000E94970160E086E00E94970161E032C0FB
:1008B00061E083E00E94970160E085E00E9497017B
:1008C00060E009C060E083E00E94970160E085E09D
:1008D0000E94970161E086E00E94970160E089E054
:1008E0000E94970160E08AE00E94970161E01AC0CF
:1008F00060E083E00E94970161E085E00E9497013B
:1009000061E086E00E94970160E089E00E94970123
:1009100060E004C089E00E94970161E08AE00E94E3
:10092000970160E08BE00E94970110937C0080911A
:100930007A00806480937A0080917A0086FDFCCFF3
:10094000209178008091790030E0382BA1EDBAE851
:100950000E946505A70196010E941505DA01C901EB
:10096000805D9A48AF4FBF4F909338018093370115
:1009700087E191E00E9445026091390170913A014E
:1009800080913B0190913C010E94570282E291E0EC
:100990000E94450260913D0170913E0180913F01AE
:1009A000909140010E9457028091000190910101B5
:1009B0000196873091052CF49093010180930001FA
:1009C00004C0D0930101C09300010E948D01FCCEB0
:1009D000E1E4F1E01382128288EE93E0A0E0B0E05F
:1009E00084839583A683B78386E091E09183808397
:1009F00085EC90E09587848784EC90E097878687E4
:100A000080EC90E0918B808B81EC90E0938B828BDB
:100A100082EC90E0958B848B86EC90E0978B868BB4
:100A2000118E128E138E148E0895052E97FB1EF4D0
:100A300000940E942C0557FD07D00E94340507FC46
:100A400003D04EF40C942C0550954095309521958B
:100A50003F4F4F4F5F4F08959095809570956195EA
:100A60007F4F8F4F9F4F0895A1E21A2EAA1BBB1BE9
:100A7000FD010DC0AA1FBB1FEE1FFF1FA217B3076A
:100A8000E407F50720F0A21BB30BE40BF50B661F80
:100A9000771F881F991F1A9469F760957095809544
:100AA00090959B01AC01BD01CF010895A29FB001BB
:100AB000B39FC001A39F700D811D1124911DB29F92
:100AC000700D811D1124911D08950E945605332338
:100AD00012F48A1B9B0B0C946F050E945605B7FFFE
:100AE0000895821B930B0895EE0FFF1F0590F4915C
:100AF000E02D099481E090E0F8940C947F05F8943F
:020B0000FFCF25
:100B02000100000000001E018700B5006B01E60035
:100B1200C400D8000D0A0074696D65312069733A0A
:0E0B2200200074696D65322069733A2000006E
:00000001FF
