:100000000C945D000C9485000C9485000C94850084
:100010000C9485000C9485000C9485000C9485004C
:100020000C9485000C9485000C9485000C9485003C
:100030000C9485000C9485000C9485000C9485002C
:100040000C941F030C9485000C94ED020C94C702D1
:100050000C9485000C9485000C9485000C9485000C
:100060000C9485000C9485000000000024002700FB
:100070002A0000000000250028002B0004040404CE
:100080000404040402020202020203030303030342
:10009000010204081020408001020408102001021F
:1000A00004081020000000080002010000030407FB
:1000B00000000000000000009A0511241FBECFEFD1
:1000C000D8E0DEBFCDBF11E0A0E0B1E0E6EBFCE0A0
:1000D00002C005900D92AA33B107D9F721E0AAE337
:1000E000B1E001C01D92A83EB207E1F710E0CDE5F6
:1000F000D0E004C02197FE010E944E06CC35D10706
:10010000C9F70E9469030C9459060C940000CF9221
:10011000DF92EF92FF920F931F93CF93DF936C01C7
:100120007A018B01C0E0D0E0CE15DF0581F0D80167
:100130006D918D01D601ED91FC910190F081E02D42
:10014000C6010995892B11F02196EECF7E01C701DA
:10015000DF91CF911F910F91FF90EF90DF90CF90A3
:100160000895089580E090E00895FC01538D448D3A
:10017000252F30E0842F90E0821B930B541710F052
:10018000CF96089501970895FC01918D828D98175F
:1001900061F0828DDF01A80FB11D5D968C91928D6B
:1001A0009F5F9F73928F90E008958FEF9FEF089568
:1001B000FC01918D828D981731F0828DE80FF11D31
:1001C000858D90E008958FEF9FEF0895FC01918D4C
:1001D000228D892F90E0805C9F4F821B91098F7345
:1001E000992708958BE491E00E94E60021E0892B95
:1001F00009F420E0822F0895FC01848DDF01A80F0F
:10020000B11DA35ABF4F2C91848D90E001968F733E
:100210009927848FA689B7892C93A089B1898C915D
:10022000837080648C93938D848D981306C00288AC
:10023000F389E02D80818F7D80830895EF92FF9276
:100240000F931F93CF93DF93EC0181E0888F9B8DF9
:100250008C8D981305C0E889F989808185FD26C0B9
:10026000F62E0B8D10E00F5F1F4F0F731127E02E3E
:100270008C8DE8120CC00FB607FCFACFE889F9891B
:10028000808185FFF5CFCE010E94FC00F1CF8B8DE0
:10029000FE01E80FF11DE35AFF4FF0829FB7F8947B
:1002A0000B8FEA89FB89808180620AC09FB7F8942E
:1002B000EE89FF896083E889F98980818370806491
:1002C00080839FBF81E090E0DF91CF911F910F91DC
:1002D000FF90EF900895CF93DF93EC01888D8823F2
:1002E000C9F0EA89FB89808185FD05C0A889B989A3
:1002F0008C9186FD0FC00FB607FCF5CF808185FF7E
:10030000F2CFA889B9898C9185FFEDCFCE010E94EB
:10031000FC00E7CFDF91CF91089580E090E0892B3A
:1003200029F00E94F20081110C940000089590E0E1
:10033000FC01EC55FF4F2491FC01E057FF4F349135
:10034000FC01E458FF4FE491EE2309F43CC0222362
:1003500039F1233091F038F42130A9F0223001F541
:1003600084B58F7D12C0273091F02830A1F0243061
:10037000B9F4809180008F7D03C0809180008F77D9
:10038000809380000DC084B58F7784BD09C08091B3
:10039000B0008F7703C08091B0008F7D8093B00054
:1003A000F0E0EE0FFF1FEE58FF4FA591B4919FB7FD
:1003B000F894611104C08C913095382302C0EC91FF
:1003C0003E2B3C939FBF0895CF93DF9390E0FC01B9
:1003D000E057FF4F2491FC01E458FF4F849188239C
:1003E00061F190E0880F991FFC01E859FF4FC5911A
:1003F000D491FC01EE58FF4FA591B491611109C051
:100400009FB7F8948881209582238883EC912E23CE
:100410000BC0623061F49FB7F8948881322F309519
:1004200083238883EC912E2B2C939FBF06C08FB71C
:10043000F894E8812E2B28838FBFDF91CF91089508
:100440008E3008F08E508770806480937C0080919D
:100450007A00806480937A0080917A0086FDFCCFD8
:10046000809178002091790090E0922B0895009778
:1004700069F0FC0101900020E9F73197AF01481BBA
:10048000590BBC018BE491E00C94870080E090E074
:1004900008958F929F92AF92BF92CF92DF92EF9288
:1004A000FF920F931F93CF93DF93CDB7DEB7A19742
:1004B0000FB6F894DEBF0FBECDBF6C01990FEE08EA
:1004C000FF08F7FE2BC06DE28BE491E00E941E0155
:1004D0008C0122273327A9012C193D094E095F09F8
:1004E00019A2CE0181967C019AE0892E912CA12C33
:1004F000B12CCA01B901A50194010E94E605605D15
:10050000F70162937F01211531054105510589F7F6
:10051000CF010E943702080F191F1EC0A7019601C4
:1005200019A28E010F5D1F4F8AE0C82ED12CE12C3D
:10053000F12CCA01B901A70196010E94E605605D90
:10054000F80162938F01211531054105510589F7A5
:10055000CF010E9437028C0186E191E00E943702B0
:10056000800F911FA1960FB6F894DEBF0FBECDBFCE
:10057000DF91CF911F910F91FF90EF90DF90CF907F
:10058000BF90AF909F908F9008950E9454061F9245
:100590000F920FB60F9211242F933F934F935F93B7
:1005A0006F937F938F939F93AF93BF93EF93FF933B
:1005B0008BE491E00E94FC00FF91EF91BF91AF911D
:1005C0009F918F917F916F915F914F913F912F916B
:1005D0000F900FBE0F901F9018951F920F920FB69D
:1005E0000F9211242F938F939F93EF93FF93E0919A
:1005F0005B01F0915C018081E0916101F091620109
:1006000082FD12C09081809164018F5F8F73209171
:100610006501821751F0E0916401F0E0E55BFE4F67
:10062000958F8093640101C08081FF91EF919F912C
:100630008F912F910F900FBE0F901F9018951F92C2
:100640000F920FB60F9211242F933F938F939F9386
:10065000AF93BF9380913B0190913C01A0913D01EC
:10066000B0913E0130913A0123E0230F2D3720F461
:100670000196A11DB11D05C026E8230F0296A11DFC
:10068000B11D20933A0180933B0190933C01A093CC
:100690003D01B0933E0180913F0190914001A091B6
:1006A0004101B09142010196A11DB11D80933F010E
:1006B00090934001A0934101B0934201BF91AF914B
:1006C0009F918F913F912F910F900FBE0F901F9090
:1006D0001895CF93DF9300D000D0CDB7DEB77894D4
:1006E00084B5826084BD84B5816084BD85B5826037
:1006F00085BD85B5816085BD80916E0081608093E8
:100700006E00109281008091810082608093810050
:100710008091810081608093810080918000816060
:10072000809380008091B10084608093B1008091BB
:10073000B00081608093B00080917A0084608093E3
:100740007A0080917A00826080937A0080917A00AA
:10075000816080937A0080917A00806880937A002B
:100760001092C100E0915B01F0915C0182E0808316
:10077000E0915701F09158011082E0915901F091F8
:100780005A018FEC808310926301E0915F01F09138
:10079000600186E08083E0915D01F0915E018081DF
:1007A00080618083E0915D01F0915E0180818860CD
:1007B0008083E0915D01F0915E018081806880839B
:1007C000E0915D01F0915E0180818F7D808361E029
:1007D00083E00E94E40161E085E00E94E40161E0C1
:1007E00086E00E94E40161E089E00E94E40161E0AA
:1007F0008AE00E94E40161E08BE00E94E40160E095
:100800008FE00E94E40160E080E10E94E40160E08A
:1008100081E10E94E40160E08EE00E94E401F3E0E7
:100820002F2E312C88248394912C8FE00E9420025B
:100830005C0180E10E9420026C0181E10E942002A3
:100840007C013FB7F89480913F0190914001A091C5
:100850004101B091420126B5A89B05C02F3F19F078
:100860000196A11DB11D3FBF409147015091480124
:100870006091490170914A0149835A836B837C835B
:100880004090450150904601052C000C6608770801
:10089000BA2FA92F982F8827820F911DA11DB11D56
:1008A000E2E0880F991FAA1FBB1FEA95D1F7841BAE
:1008B000950BA60BB70B84159505A605B70508F48F
:1008C00036C1C5018C0D9D1D8E0D9F1DB1010E946D
:1008D00017068B0129813A814B815C81420E531EA0
:1008E000641E751E40924701509248016092490172
:1008F00070924A0140910201509103015A83498349
:100900004330510509F44EC0ACF441305105A1F11A
:100910004230510509F09AC061E083E00E949701DE
:1009200060E085E00E94970160E086E00E94970108
:1009300061E075C069817A816530710509F462C032
:100940000CF446C06630710509F080C060E083E0B9
:100950000E94970161E085E00E94970160E086E0D7
:100960000E94970160E089E00E94970161E08AE0BF
:100970000E94970160E060C060E083E00E94970100
:1009800060E085E00E94970160E086E00E949701A8
:1009900061E089E00E94970161E08AE00E9497018E
:1009A00060E02BC061E083E00E94970160E085E099
:1009B0000E94970160E086E00E94970160E089E074
:1009C0000E94970160E08AE00E94970161E034C0D4
:1009D00060E083E00E94970160E085E00E9497015B
:1009E00061E086E00E94970160E089E00E94970143
:1009F00060E08AE00E94970161E08BE00E9497012D
:100A0000C5011EC060E083E00E94970161E085E0BF
:100A10000E94970161E086E00E94970160E089E012
:100A20000E94970160E08AE00E94970160E08BE0FD
:100A30000E949701C70104C08BE00E949701C60184
:100A4000801B910B9093440180934301809100019E
:100A50009091010197FF1CC0809143019091440146
:100A600018161906ACF49093010180930001898156
:100A70009A8101969A838983873091052CF490930B
:100A80000301809302010BC0909203018092020146
:100A9000809100019091010118161906DCF48091F3
:100AA00043019091440197FF15C0909301018093F9
:100AB0000001809102019091030101968730910518
:100AC0002CF4909303018093020104C090920301DF
:100AD000809202018EE00E9420029C01A1EDBAE802
:100AE0000E942B062FEF33E040E050E00E94C70544
:100AF000DA01C901805D9A48AF4FBF4F909346011C
:100B00008093450189E191E00E943702C5010E946E
:100B1000490284E291E00E943702C6010E94490224
:100B20008FE291E00E943702C7010E9449020E94B1
:100B30008D017BCEEBE4F1E01382128288EE93E02C
:100B4000A0E0B0E084839583A683B78388E091E03A
:100B50009183808385EC90E09587848784EC90E096
:100B60009787868780EC90E0918B808B81EC90E07A
:100B7000938B828B82EC90E0958B848B86EC90E05B
:100B8000978B868B118E128E138E148E0895052EE0
:100B900097FB1EF400940E94DE0557FD07D00E94CB
:100BA000E60507FC03D04EF40C94DE055095409505
:100BB000309521953F4F4F4F5F4F08959095809509
:100BC000709561957F4F8F4F9F4F0895A1E21A2E28
:100BD000AA1BBB1BFD010DC0AA1FBB1FEE1FFF1FE1
:100BE000A217B307E407F50720F0A21BB30BE40B31
:100BF000F50B661F771F881F991F1A9469F7609578
:100C00007095809590959B01AC01BD01CF01089531
:100C1000A29FB001B39FC001A39F700D811D11243D
:100C2000911DB29F700D811D1124911D089597FB98
:100C3000072E16F4009407D077FD09D00E943A06DB
:100C400007FC05D03EF4909581959F4F08957095CF
:100C500061957F4F08950E940806332312F48A1B82
:100C60009B0B0C9435060E940806B7FF0895821B63
:100C7000930B0895AA1BBB1B51E107C0AA1FBB1F02
:100C8000A617B70710F0A61BB70B881F991F5A9518
:100C9000A9F780959095BC01CD010895EE0FFF1F37
:100CA0000590F491E02D099481E090E0F8940C9483
:060CB0005906F894FFCF85
:100CB600FFFF0100000000001E018700B5006B0168
:100CC600E600C400D8000D0A00656D662041206963
:100CD600733A2000656D6620422069733A200065EC
:0A0CE6006D6620432069733A200078
:00000001FF
